{
  "_format": "hh-sol-artifact-1",
  "contractName": "ResellNFT",
  "sourceName": "contracts/ResellNFT.sol",
  "abi": [
    {
      "inputs": [],
      "stateMutability": "nonpayable",
      "type": "constructor"
    },
    {
      "inputs": [
        {
          "internalType": "address",
          "name": "sender",
          "type": "address"
        },
        {
          "internalType": "uint256",
          "name": "tokenId",
          "type": "uint256"
        },
        {
          "internalType": "address",
          "name": "owner",
          "type": "address"
        }
      ],
      "name": "ERC721IncorrectOwner",
      "type": "error"
    },
    {
      "inputs": [
        {
          "internalType": "address",
          "name": "operator",
          "type": "address"
        },
        {
          "internalType": "uint256",
          "name": "tokenId",
          "type": "uint256"
        }
      ],
      "name": "ERC721InsufficientApproval",
      "type": "error"
    },
    {
      "inputs": [
        {
          "internalType": "address",
          "name": "approver",
          "type": "address"
        }
      ],
      "name": "ERC721InvalidApprover",
      "type": "error"
    },
    {
      "inputs": [
        {
          "internalType": "address",
          "name": "operator",
          "type": "address"
        }
      ],
      "name": "ERC721InvalidOperator",
      "type": "error"
    },
    {
      "inputs": [
        {
          "internalType": "address",
          "name": "owner",
          "type": "address"
        }
      ],
      "name": "ERC721InvalidOwner",
      "type": "error"
    },
    {
      "inputs": [
        {
          "internalType": "address",
          "name": "receiver",
          "type": "address"
        }
      ],
      "name": "ERC721InvalidReceiver",
      "type": "error"
    },
    {
      "inputs": [
        {
          "internalType": "address",
          "name": "sender",
          "type": "address"
        }
      ],
      "name": "ERC721InvalidSender",
      "type": "error"
    },
    {
      "inputs": [
        {
          "internalType": "uint256",
          "name": "tokenId",
          "type": "uint256"
        }
      ],
      "name": "ERC721NonexistentToken",
      "type": "error"
    },
    {
      "inputs": [
        {
          "internalType": "address",
          "name": "owner",
          "type": "address"
        }
      ],
      "name": "OwnableInvalidOwner",
      "type": "error"
    },
    {
      "inputs": [
        {
          "internalType": "address",
          "name": "account",
          "type": "address"
        }
      ],
      "name": "OwnableUnauthorizedAccount",
      "type": "error"
    },
    {
      "inputs": [],
      "name": "ProductPriceDetails__InvalidPrice",
      "type": "error"
    },
    {
      "inputs": [],
      "name": "ProductPriceDetails__InvalidToken",
      "type": "error"
    },
    {
      "inputs": [],
      "name": "ResellNFT__OnlyITokenOwnerAllowded",
      "type": "error"
    },
    {
      "inputs": [],
      "name": "ResellNFT__OnlyIssuerOrItselfIsAllowded",
      "type": "error"
    },
    {
      "anonymous": false,
      "inputs": [
        {
          "indexed": true,
          "internalType": "address",
          "name": "owner",
          "type": "address"
        },
        {
          "indexed": true,
          "internalType": "address",
          "name": "approved",
          "type": "address"
        },
        {
          "indexed": true,
          "internalType": "uint256",
          "name": "tokenId",
          "type": "uint256"
        }
      ],
      "name": "Approval",
      "type": "event"
    },
    {
      "anonymous": false,
      "inputs": [
        {
          "indexed": true,
          "internalType": "address",
          "name": "owner",
          "type": "address"
        },
        {
          "indexed": true,
          "internalType": "address",
          "name": "operator",
          "type": "address"
        },
        {
          "indexed": false,
          "internalType": "bool",
          "name": "approved",
          "type": "bool"
        }
      ],
      "name": "ApprovalForAll",
      "type": "event"
    },
    {
      "anonymous": false,
      "inputs": [
        {
          "indexed": false,
          "internalType": "uint256",
          "name": "_fromTokenId",
          "type": "uint256"
        },
        {
          "indexed": false,
          "internalType": "uint256",
          "name": "_toTokenId",
          "type": "uint256"
        }
      ],
      "name": "BatchMetadataUpdate",
      "type": "event"
    },
    {
      "anonymous": false,
      "inputs": [
        {
          "indexed": false,
          "internalType": "uint256",
          "name": "_tokenId",
          "type": "uint256"
        }
      ],
      "name": "MetadataUpdate",
      "type": "event"
    },
    {
      "anonymous": false,
      "inputs": [
        {
          "indexed": true,
          "internalType": "address",
          "name": "previousOwner",
          "type": "address"
        },
        {
          "indexed": true,
          "internalType": "address",
          "name": "newOwner",
          "type": "address"
        }
      ],
      "name": "OwnershipTransferred",
      "type": "event"
    },
    {
      "anonymous": false,
      "inputs": [
        {
          "indexed": true,
          "internalType": "uint256",
          "name": "tokenId",
          "type": "uint256"
        },
        {
          "indexed": true,
          "internalType": "uint256",
          "name": "updatedPrice",
          "type": "uint256"
        },
        {
          "indexed": false,
          "internalType": "address",
          "name": "modifiedBy",
          "type": "address"
        }
      ],
      "name": "PriceUpdated",
      "type": "event"
    },
    {
      "anonymous": false,
      "inputs": [
        {
          "indexed": true,
          "internalType": "uint256",
          "name": "tokenId",
          "type": "uint256"
        },
        {
          "indexed": false,
          "internalType": "string",
          "name": "tokenURI",
          "type": "string"
        },
        {
          "indexed": false,
          "internalType": "uint256",
          "name": "price",
          "type": "uint256"
        }
      ],
      "name": "ProductAdded",
      "type": "event"
    },
    {
      "anonymous": false,
      "inputs": [
        {
          "indexed": true,
          "internalType": "address",
          "name": "issuer",
          "type": "address"
        }
      ],
      "name": "SetIssuer",
      "type": "event"
    },
    {
      "anonymous": false,
      "inputs": [
        {
          "indexed": true,
          "internalType": "address",
          "name": "from",
          "type": "address"
        },
        {
          "indexed": true,
          "internalType": "address",
          "name": "to",
          "type": "address"
        },
        {
          "indexed": true,
          "internalType": "uint256",
          "name": "tokenId",
          "type": "uint256"
        }
      ],
      "name": "Transfer",
      "type": "event"
    },
    {
      "inputs": [
        {
          "internalType": "address",
          "name": "to",
          "type": "address"
        },
        {
          "internalType": "uint256",
          "name": "tokenId",
          "type": "uint256"
        }
      ],
      "name": "approve",
      "outputs": [],
      "stateMutability": "nonpayable",
      "type": "function"
    },
    {
      "inputs": [
        {
          "internalType": "address",
          "name": "owner",
          "type": "address"
        }
      ],
      "name": "balanceOf",
      "outputs": [
        {
          "internalType": "uint256",
          "name": "",
          "type": "uint256"
        }
      ],
      "stateMutability": "view",
      "type": "function"
    },
    {
      "inputs": [
        {
          "internalType": "uint256",
          "name": "tokenId",
          "type": "uint256"
        }
      ],
      "name": "getApproved",
      "outputs": [
        {
          "internalType": "address",
          "name": "",
          "type": "address"
        }
      ],
      "stateMutability": "view",
      "type": "function"
    },
    {
      "inputs": [
        {
          "internalType": "uint256",
          "name": "tokenId",
          "type": "uint256"
        }
      ],
      "name": "getTokenDetails",
      "outputs": [
        {
          "components": [
            {
              "internalType": "uint256",
              "name": "id",
              "type": "uint256"
            },
            {
              "internalType": "string",
              "name": "uri",
              "type": "string"
            },
            {
              "internalType": "uint256",
              "name": "price",
              "type": "uint256"
            }
          ],
          "internalType": "struct ResellNFT.TokenDetails",
          "name": "",
          "type": "tuple"
        }
      ],
      "stateMutability": "view",
      "type": "function"
    },
    {
      "inputs": [
        {
          "internalType": "uint256",
          "name": "tokenId",
          "type": "uint256"
        }
      ],
      "name": "getTokenPrice",
      "outputs": [
        {
          "internalType": "uint256",
          "name": "tokenPrice",
          "type": "uint256"
        }
      ],
      "stateMutability": "view",
      "type": "function"
    },
    {
      "inputs": [
        {
          "internalType": "address",
          "name": "owner",
          "type": "address"
        },
        {
          "internalType": "address",
          "name": "operator",
          "type": "address"
        }
      ],
      "name": "isApprovedForAll",
      "outputs": [
        {
          "internalType": "bool",
          "name": "",
          "type": "bool"
        }
      ],
      "stateMutability": "view",
      "type": "function"
    },
    {
      "inputs": [
        {
          "internalType": "address",
          "name": "to",
          "type": "address"
        },
        {
          "internalType": "string",
          "name": "tokenURI",
          "type": "string"
        },
        {
          "internalType": "uint256",
          "name": "price",
          "type": "uint256"
        }
      ],
      "name": "mintAndUpdateProductPrice",
      "outputs": [
        {
          "internalType": "uint256",
          "name": "tokenId",
          "type": "uint256"
        }
      ],
      "stateMutability": "nonpayable",
      "type": "function"
    },
    {
      "inputs": [],
      "name": "name",
      "outputs": [
        {
          "internalType": "string",
          "name": "",
          "type": "string"
        }
      ],
      "stateMutability": "view",
      "type": "function"
    },
    {
      "inputs": [],
      "name": "owner",
      "outputs": [
        {
          "internalType": "address",
          "name": "",
          "type": "address"
        }
      ],
      "stateMutability": "view",
      "type": "function"
    },
    {
      "inputs": [
        {
          "internalType": "uint256",
          "name": "tokenId",
          "type": "uint256"
        }
      ],
      "name": "ownerOf",
      "outputs": [
        {
          "internalType": "address",
          "name": "",
          "type": "address"
        }
      ],
      "stateMutability": "view",
      "type": "function"
    },
    {
      "inputs": [],
      "name": "renounceOwnership",
      "outputs": [],
      "stateMutability": "nonpayable",
      "type": "function"
    },
    {
      "inputs": [
        {
          "internalType": "address",
          "name": "from",
          "type": "address"
        },
        {
          "internalType": "address",
          "name": "to",
          "type": "address"
        },
        {
          "internalType": "uint256",
          "name": "tokenId",
          "type": "uint256"
        }
      ],
      "name": "safeTransferFrom",
      "outputs": [],
      "stateMutability": "nonpayable",
      "type": "function"
    },
    {
      "inputs": [
        {
          "internalType": "address",
          "name": "from",
          "type": "address"
        },
        {
          "internalType": "address",
          "name": "to",
          "type": "address"
        },
        {
          "internalType": "uint256",
          "name": "tokenId",
          "type": "uint256"
        },
        {
          "internalType": "bytes",
          "name": "data",
          "type": "bytes"
        }
      ],
      "name": "safeTransferFrom",
      "outputs": [],
      "stateMutability": "nonpayable",
      "type": "function"
    },
    {
      "inputs": [
        {
          "internalType": "address",
          "name": "operator",
          "type": "address"
        },
        {
          "internalType": "bool",
          "name": "approved",
          "type": "bool"
        }
      ],
      "name": "setApprovalForAll",
      "outputs": [],
      "stateMutability": "nonpayable",
      "type": "function"
    },
    {
      "inputs": [
        {
          "internalType": "address",
          "name": "issuer",
          "type": "address"
        }
      ],
      "name": "setIssuer",
      "outputs": [],
      "stateMutability": "nonpayable",
      "type": "function"
    },
    {
      "inputs": [
        {
          "internalType": "bytes4",
          "name": "interfaceId",
          "type": "bytes4"
        }
      ],
      "name": "supportsInterface",
      "outputs": [
        {
          "internalType": "bool",
          "name": "",
          "type": "bool"
        }
      ],
      "stateMutability": "view",
      "type": "function"
    },
    {
      "inputs": [],
      "name": "symbol",
      "outputs": [
        {
          "internalType": "string",
          "name": "",
          "type": "string"
        }
      ],
      "stateMutability": "view",
      "type": "function"
    },
    {
      "inputs": [
        {
          "internalType": "uint256",
          "name": "tokenId",
          "type": "uint256"
        }
      ],
      "name": "tokenURI",
      "outputs": [
        {
          "internalType": "string",
          "name": "",
          "type": "string"
        }
      ],
      "stateMutability": "view",
      "type": "function"
    },
    {
      "inputs": [
        {
          "internalType": "address",
          "name": "from",
          "type": "address"
        },
        {
          "internalType": "address",
          "name": "to",
          "type": "address"
        },
        {
          "internalType": "uint256",
          "name": "tokenId",
          "type": "uint256"
        }
      ],
      "name": "transferFrom",
      "outputs": [],
      "stateMutability": "nonpayable",
      "type": "function"
    },
    {
      "inputs": [
        {
          "internalType": "address",
          "name": "newOwner",
          "type": "address"
        }
      ],
      "name": "transferOwnership",
      "outputs": [],
      "stateMutability": "nonpayable",
      "type": "function"
    },
    {
      "inputs": [
        {
          "internalType": "uint256",
          "name": "tokenId",
          "type": "uint256"
        },
        {
          "internalType": "uint256",
          "name": "price",
          "type": "uint256"
        }
      ],
      "name": "updateProductPrice",
      "outputs": [],
      "stateMutability": "nonpayable",
      "type": "function"
    }
  ],
  "bytecode": "0x608060405234801561001057600080fd5b50336040518060400160405280600b81526020017f526573656c6c546f6b656e0000000000000000000000000000000000000000008152506040518060400160405280600281526020017f5254000000000000000000000000000000000000000000000000000000000000815250816000908161008d919061043d565b50806001908161009d919061043d565b505050600073ffffffffffffffffffffffffffffffffffffffff168173ffffffffffffffffffffffffffffffffffffffff16036101125760006040517f1e4fbdf70000000000000000000000000000000000000000000000000000000081526004016101099190610550565b60405180910390fd5b6101218161012760201b60201c565b5061056b565b6000600960009054906101000a900473ffffffffffffffffffffffffffffffffffffffff16905081600960006101000a81548173ffffffffffffffffffffffffffffffffffffffff021916908373ffffffffffffffffffffffffffffffffffffffff1602179055508173ffffffffffffffffffffffffffffffffffffffff168173ffffffffffffffffffffffffffffffffffffffff167f8be0079c531659141344cd1fd0a4f28419497f9722a3daafe3b4186f6b6457e060405160405180910390a35050565b600081519050919050565b7f4e487b7100000000000000000000000000000000000000000000000000000000600052604160045260246000fd5b7f4e487b7100000000000000000000000000000000000000000000000000000000600052602260045260246000fd5b6000600282049050600182168061026e57607f821691505b60208210810361028157610280610227565b5b50919050565b60008190508160005260206000209050919050565b60006020601f8301049050919050565b600082821b905092915050565b6000600883026102e97fffffffffffffffffffffffffffffffffffffffffffffffffffffffffffffffff826102ac565b6102f386836102ac565b95508019841693508086168417925050509392505050565b6000819050919050565b6000819050919050565b600061033a6103356103308461030b565b610315565b61030b565b9050919050565b6000819050919050565b6103548361031f565b61036861036082610341565b8484546102b9565b825550505050565b600090565b61037d610370565b61038881848461034b565b505050565b5b818110156103ac576103a1600082610375565b60018101905061038e565b5050565b601f8211156103f1576103c281610287565b6103cb8461029c565b810160208510156103da578190505b6103ee6103e68561029c565b83018261038d565b50505b505050565b600082821c905092915050565b6000610414600019846008026103f6565b1980831691505092915050565b600061042d8383610403565b9150826002028217905092915050565b610446826101ed565b67ffffffffffffffff81111561045f5761045e6101f8565b5b6104698254610256565b6104748282856103b0565b600060209050601f8311600181146104a75760008415610495578287015190505b61049f8582610421565b865550610507565b601f1984166104b586610287565b60005b828110156104dd578489015182556001820191506020850194506020810190506104b8565b868310156104fa57848901516104f6601f891682610403565b8355505b6001600288020188555050505b505050505050565b600073ffffffffffffffffffffffffffffffffffffffff82169050919050565b600061053a8261050f565b9050919050565b61054a8161052f565b82525050565b60006020820190506105656000830184610541565b92915050565b612c378061057a6000396000f3fe608060405234801561001057600080fd5b50600436106101375760003560e01c80638da5cb5b116100b8578063b88d4fde1161007c578063b88d4fde14610338578063c1e0372814610354578063c457fb3714610384578063c87b56dd146103b4578063e985e9c5146103e4578063f2fde38b1461041457610137565b80638da5cb5b1461029457806395d89b41146102b25780639c3bddb2146102d0578063a22cb465146102ec578063b7b0f1691461030857610137565b806342842e0e116100ff57806342842e0e146101f257806355cc4e571461020e5780636352211e1461022a57806370a082311461025a578063715018a61461028a57610137565b806301ffc9a71461013c57806306fdde031461016c578063081812fc1461018a578063095ea7b3146101ba57806323b872dd146101d6575b600080fd5b61015660048036038101906101519190611f41565b610430565b6040516101639190611f89565b60405180910390f35b610174610491565b6040516101819190612034565b60405180910390f35b6101a4600480360381019061019f919061208c565b610523565b6040516101b191906120fa565b60405180910390f35b6101d460048036038101906101cf9190612141565b61053f565b005b6101f060048036038101906101eb9190612181565b610555565b005b61020c60048036038101906102079190612181565b610657565b005b610228600480360381019061022391906121d4565b610677565b005b610244600480360381019061023f919061208c565b610706565b60405161025191906120fa565b60405180910390f35b610274600480360381019061026f91906121d4565b610718565b6040516102819190612210565b60405180910390f35b6102926107d2565b005b61029c6107e6565b6040516102a991906120fa565b60405180910390f35b6102ba610810565b6040516102c79190612034565b60405180910390f35b6102ea60048036038101906102e5919061222b565b6108a2565b005b61030660048036038101906103019190612297565b61097b565b005b610322600480360381019061031d919061240c565b610991565b60405161032f9190612210565b60405180910390f35b610352600480360381019061034d919061251c565b610ab2565b005b61036e6004803603810190610369919061208c565b610ad7565b60405161037b9190612648565b60405180910390f35b61039e6004803603810190610399919061208c565b610b28565b6040516103ab9190612210565b60405180910390f35b6103ce60048036038101906103c9919061208c565b610b91565b6040516103db9190612034565b60405180910390f35b6103fe60048036038101906103f9919061266a565b610ca4565b60405161040b9190611f89565b60405180910390f35b61042e600480360381019061042991906121d4565b610d38565b005b6000634906490660e01b7bffffffffffffffffffffffffffffffffffffffffffffffffffffffff1916827bffffffffffffffffffffffffffffffffffffffffffffffffffffffff1916148061048a575061048982610dbe565b5b9050919050565b6060600080546104a0906126d9565b80601f01602080910402602001604051908101604052809291908181526020018280546104cc906126d9565b80156105195780601f106104ee57610100808354040283529160200191610519565b820191906000526020600020905b8154815290600101906020018083116104fc57829003601f168201915b5050505050905090565b600061052e82610ea0565b5061053882610f28565b9050919050565b610551828261054c610f65565b610f6d565b5050565b600073ffffffffffffffffffffffffffffffffffffffff168273ffffffffffffffffffffffffffffffffffffffff16036105c75760006040517f64a0ae920000000000000000000000000000000000000000000000000000000081526004016105be91906120fa565b60405180910390fd5b60006105db83836105d6610f65565b610f7f565b90508373ffffffffffffffffffffffffffffffffffffffff168173ffffffffffffffffffffffffffffffffffffffff1614610651578382826040517f64283d7b0000000000000000000000000000000000000000000000000000000081526004016106489392919061270a565b60405180910390fd5b50505050565b61067283838360405180602001604052806000815250610ab2565b505050565b61067f611199565b80600a60006101000a81548173ffffffffffffffffffffffffffffffffffffffff021916908373ffffffffffffffffffffffffffffffffffffffff1602179055508073ffffffffffffffffffffffffffffffffffffffff167fd56ed7b1c1110348b1fbf418469f6fc4acc32d9b675e9e1e448cc19169a64ca060405160405180910390a250565b600061071182610ea0565b9050919050565b60008073ffffffffffffffffffffffffffffffffffffffff168273ffffffffffffffffffffffffffffffffffffffff160361078b5760006040517f89c62b6400000000000000000000000000000000000000000000000000000000815260040161078291906120fa565b60405180910390fd5b600360008373ffffffffffffffffffffffffffffffffffffffff1673ffffffffffffffffffffffffffffffffffffffff168152602001908152602001600020549050919050565b6107da611199565b6107e46000611220565b565b6000600960009054906101000a900473ffffffffffffffffffffffffffffffffffffffff16905090565b60606001805461081f906126d9565b80601f016020809104026020016040519081016040528092919081815260200182805461084b906126d9565b80156108985780601f1061086d57610100808354040283529160200191610898565b820191906000526020600020905b81548152906001019060200180831161087b57829003601f168201915b5050505050905090565b816108ac81610706565b73ffffffffffffffffffffffffffffffffffffffff163373ffffffffffffffffffffffffffffffffffffffff16141580156109355750600a60009054906101000a900473ffffffffffffffffffffffffffffffffffffffff1673ffffffffffffffffffffffffffffffffffffffff163373ffffffffffffffffffffffffffffffffffffffff1614155b1561096c576040517f6e3751da00000000000000000000000000000000000000000000000000000000815260040160405180910390fd5b61097683836112e6565b505050565b61098d610986610f65565b8383611375565b5050565b6000600a60009054906101000a900473ffffffffffffffffffffffffffffffffffffffff1673ffffffffffffffffffffffffffffffffffffffff163373ffffffffffffffffffffffffffffffffffffffff1614158015610a2457506109f46107e6565b73ffffffffffffffffffffffffffffffffffffffff163373ffffffffffffffffffffffffffffffffffffffff1614155b15610a5b576040517fc0916e7100000000000000000000000000000000000000000000000000000000815260040160405180910390fd5b610a6584846114e4565b9050610a7181836112e6565b807fcca07c742c5274e8b72111ba69566aa4442450bfc50bd897ea38d0170d1accfc8484604051610aa3929190612741565b60405180910390a29392505050565b610abd848484610555565b610ad1610ac8610f65565b8585858561151c565b50505050565b610adf611eb4565b6000600860008481526020019081526020016000205490506000610b0284610b91565b905060405180606001604052808581526020018281526020018381525092505050919050565b600080600860008481526020019081526020016000205403610b76576040517f643c908f00000000000000000000000000000000000000000000000000000000815260040160405180910390fd5b60086000838152602001908152602001600020549050919050565b6060610b9c82610ea0565b506000600660008481526020019081526020016000208054610bbd906126d9565b80601f0160208091040260200160405190810160405280929190818152602001828054610be9906126d9565b8015610c365780601f10610c0b57610100808354040283529160200191610c36565b820191906000526020600020905b815481529060010190602001808311610c1957829003601f168201915b505050505090506000610c476116cd565b90506000815103610c5c578192505050610c9f565b600082511115610c91578082604051602001610c799291906127ad565b60405160208183030381529060405292505050610c9f565b610c9a846116e4565b925050505b919050565b6000600560008473ffffffffffffffffffffffffffffffffffffffff1673ffffffffffffffffffffffffffffffffffffffff16815260200190815260200160002060008373ffffffffffffffffffffffffffffffffffffffff1673ffffffffffffffffffffffffffffffffffffffff16815260200190815260200160002060009054906101000a900460ff16905092915050565b610d40611199565b600073ffffffffffffffffffffffffffffffffffffffff168173ffffffffffffffffffffffffffffffffffffffff1603610db25760006040517f1e4fbdf7000000000000000000000000000000000000000000000000000000008152600401610da991906120fa565b60405180910390fd5b610dbb81611220565b50565b60007f80ac58cd000000000000000000000000000000000000000000000000000000007bffffffffffffffffffffffffffffffffffffffffffffffffffffffff1916827bffffffffffffffffffffffffffffffffffffffffffffffffffffffff19161480610e8957507f5b5e139f000000000000000000000000000000000000000000000000000000007bffffffffffffffffffffffffffffffffffffffffffffffffffffffff1916827bffffffffffffffffffffffffffffffffffffffffffffffffffffffff1916145b80610e995750610e988261174d565b5b9050919050565b600080610eac836117b7565b9050600073ffffffffffffffffffffffffffffffffffffffff168173ffffffffffffffffffffffffffffffffffffffff1603610f1f57826040517f7e273289000000000000000000000000000000000000000000000000000000008152600401610f169190612210565b60405180910390fd5b80915050919050565b60006004600083815260200190815260200160002060009054906101000a900473ffffffffffffffffffffffffffffffffffffffff169050919050565b600033905090565b610f7a83838360016117f4565b505050565b600080610f8b846117b7565b9050600073ffffffffffffffffffffffffffffffffffffffff168373ffffffffffffffffffffffffffffffffffffffff1614610fcd57610fcc8184866119b9565b5b600073ffffffffffffffffffffffffffffffffffffffff168173ffffffffffffffffffffffffffffffffffffffff161461105e5761100f6000856000806117f4565b6001600360008373ffffffffffffffffffffffffffffffffffffffff1673ffffffffffffffffffffffffffffffffffffffff168152602001908152602001600020600082825403925050819055505b600073ffffffffffffffffffffffffffffffffffffffff168573ffffffffffffffffffffffffffffffffffffffff16146110e1576001600360008773ffffffffffffffffffffffffffffffffffffffff1673ffffffffffffffffffffffffffffffffffffffff168152602001908152602001600020600082825401925050819055505b846002600086815260200190815260200160002060006101000a81548173ffffffffffffffffffffffffffffffffffffffff021916908373ffffffffffffffffffffffffffffffffffffffff160217905550838573ffffffffffffffffffffffffffffffffffffffff168273ffffffffffffffffffffffffffffffffffffffff167fddf252ad1be2c89b69c2b068fc378daa952ba7f163c4a11628f55a4df523b3ef60405160405180910390a4809150509392505050565b6111a1610f65565b73ffffffffffffffffffffffffffffffffffffffff166111bf6107e6565b73ffffffffffffffffffffffffffffffffffffffff161461121e576111e2610f65565b6040517f118cdaa700000000000000000000000000000000000000000000000000000000815260040161121591906120fa565b60405180910390fd5b565b6000600960009054906101000a900473ffffffffffffffffffffffffffffffffffffffff16905081600960006101000a81548173ffffffffffffffffffffffffffffffffffffffff021916908373ffffffffffffffffffffffffffffffffffffffff1602179055508173ffffffffffffffffffffffffffffffffffffffff168173ffffffffffffffffffffffffffffffffffffffff167f8be0079c531659141344cd1fd0a4f28419497f9722a3daafe3b4186f6b6457e060405160405180910390a35050565b60008111611320576040517fb7e2754f00000000000000000000000000000000000000000000000000000000815260040160405180910390fd5b80600860008481526020019081526020016000208190555080827f378b09391f49d01e482ba75312341912ad0652cb8aa8799b6b33b624bd65d9f23360405161136991906120fa565b60405180910390a35050565b600073ffffffffffffffffffffffffffffffffffffffff168273ffffffffffffffffffffffffffffffffffffffff16036113e657816040517f5b08ba180000000000000000000000000000000000000000000000000000000081526004016113dd91906120fa565b60405180910390fd5b80600560008573ffffffffffffffffffffffffffffffffffffffff1673ffffffffffffffffffffffffffffffffffffffff16815260200190815260200160002060008473ffffffffffffffffffffffffffffffffffffffff1673ffffffffffffffffffffffffffffffffffffffff16815260200190815260200160002060006101000a81548160ff0219169083151502179055508173ffffffffffffffffffffffffffffffffffffffff168373ffffffffffffffffffffffffffffffffffffffff167f17307eab39ab6107e8899845ad3d59bd9653f200f220920489ca2b5937696c31836040516114d79190611f89565b60405180910390a3505050565b6000806007600081546114f690612800565b91905081905590506115088482611a7d565b6115128184611b76565b8091505092915050565b60008373ffffffffffffffffffffffffffffffffffffffff163b11156116c6578273ffffffffffffffffffffffffffffffffffffffff1663150b7a02868685856040518563ffffffff1660e01b815260040161157b949392919061289d565b6020604051808303816000875af19250505080156115b757506040513d601f19601f820116820180604052508101906115b491906128fe565b60015b61163b573d80600081146115e7576040519150601f19603f3d011682016040523d82523d6000602084013e6115ec565b606091505b50600081510361163357836040517f64a0ae9200000000000000000000000000000000000000000000000000000000815260040161162a91906120fa565b60405180910390fd5b805181602001fd5b63150b7a0260e01b7bffffffffffffffffffffffffffffffffffffffffffffffffffffffff1916817bffffffffffffffffffffffffffffffffffffffffffffffffffffffff1916146116c457836040517f64a0ae920000000000000000000000000000000000000000000000000000000081526004016116bb91906120fa565b60405180910390fd5b505b5050505050565b606060405180602001604052806000815250905090565b60606116ef82610ea0565b5060006116fa6116cd565b9050600081511161171a5760405180602001604052806000815250611745565b8061172484611bd2565b6040516020016117359291906127ad565b6040516020818303038152906040525b915050919050565b60007f01ffc9a7000000000000000000000000000000000000000000000000000000007bffffffffffffffffffffffffffffffffffffffffffffffffffffffff1916827bffffffffffffffffffffffffffffffffffffffffffffffffffffffff1916149050919050565b60006002600083815260200190815260200160002060009054906101000a900473ffffffffffffffffffffffffffffffffffffffff169050919050565b808061182d5750600073ffffffffffffffffffffffffffffffffffffffff168273ffffffffffffffffffffffffffffffffffffffff1614155b1561196157600061183d84610ea0565b9050600073ffffffffffffffffffffffffffffffffffffffff168373ffffffffffffffffffffffffffffffffffffffff16141580156118a857508273ffffffffffffffffffffffffffffffffffffffff168173ffffffffffffffffffffffffffffffffffffffff1614155b80156118bb57506118b98184610ca4565b155b156118fd57826040517fa9fbf51f0000000000000000000000000000000000000000000000000000000081526004016118f491906120fa565b60405180910390fd5b811561195f57838573ffffffffffffffffffffffffffffffffffffffff168273ffffffffffffffffffffffffffffffffffffffff167f8c5be1e5ebec7d5bd14f71427d1e84f3dd0314c0f7b2291e5b200ac8c7c3b92560405160405180910390a45b505b836004600085815260200190815260200160002060006101000a81548173ffffffffffffffffffffffffffffffffffffffff021916908373ffffffffffffffffffffffffffffffffffffffff16021790555050505050565b6119c4838383611ca0565b611a7857600073ffffffffffffffffffffffffffffffffffffffff168373ffffffffffffffffffffffffffffffffffffffff1603611a3957806040517f7e273289000000000000000000000000000000000000000000000000000000008152600401611a309190612210565b60405180910390fd5b81816040517f177e802f000000000000000000000000000000000000000000000000000000008152600401611a6f92919061292b565b60405180910390fd5b505050565b600073ffffffffffffffffffffffffffffffffffffffff168273ffffffffffffffffffffffffffffffffffffffff1603611aef5760006040517f64a0ae92000000000000000000000000000000000000000000000000000000008152600401611ae691906120fa565b60405180910390fd5b6000611afd83836000610f7f565b9050600073ffffffffffffffffffffffffffffffffffffffff168173ffffffffffffffffffffffffffffffffffffffff1614611b715760006040517f73c6ac6e000000000000000000000000000000000000000000000000000000008152600401611b6891906120fa565b60405180910390fd5b505050565b80600660008481526020019081526020016000209081611b969190612b00565b507ff8e1a15aba9398e019f0b49df1a4fde98ee17ae345cb5f6b5e2c27f5033e8ce782604051611bc69190612210565b60405180910390a15050565b606060006001611be184611d61565b01905060008167ffffffffffffffff811115611c0057611bff6122e1565b5b6040519080825280601f01601f191660200182016040528015611c325781602001600182028036833780820191505090505b509050600082602001820190505b600115611c95578080600190039150507f3031323334353637383961626364656600000000000000000000000000000000600a86061a8153600a8581611c8957611c88612bd2565b5b04945060008503611c40575b819350505050919050565b60008073ffffffffffffffffffffffffffffffffffffffff168373ffffffffffffffffffffffffffffffffffffffff1614158015611d5857508273ffffffffffffffffffffffffffffffffffffffff168473ffffffffffffffffffffffffffffffffffffffff161480611d195750611d188484610ca4565b5b80611d5757508273ffffffffffffffffffffffffffffffffffffffff16611d3f83610f28565b73ffffffffffffffffffffffffffffffffffffffff16145b5b90509392505050565b600080600090507a184f03e93ff9f4daa797ed6e38ed64bf6a1f0100000000000000008310611dbf577a184f03e93ff9f4daa797ed6e38ed64bf6a1f0100000000000000008381611db557611db4612bd2565b5b0492506040810190505b6d04ee2d6d415b85acef81000000008310611dfc576d04ee2d6d415b85acef81000000008381611df257611df1612bd2565b5b0492506020810190505b662386f26fc100008310611e2b57662386f26fc100008381611e2157611e20612bd2565b5b0492506010810190505b6305f5e1008310611e54576305f5e1008381611e4a57611e49612bd2565b5b0492506008810190505b6127108310611e79576127108381611e6f57611e6e612bd2565b5b0492506004810190505b60648310611e9c5760648381611e9257611e91612bd2565b5b0492506002810190505b600a8310611eab576001810190505b80915050919050565b60405180606001604052806000815260200160608152602001600081525090565b6000604051905090565b600080fd5b600080fd5b60007fffffffff0000000000000000000000000000000000000000000000000000000082169050919050565b611f1e81611ee9565b8114611f2957600080fd5b50565b600081359050611f3b81611f15565b92915050565b600060208284031215611f5757611f56611edf565b5b6000611f6584828501611f2c565b91505092915050565b60008115159050919050565b611f8381611f6e565b82525050565b6000602082019050611f9e6000830184611f7a565b92915050565b600081519050919050565b600082825260208201905092915050565b60005b83811015611fde578082015181840152602081019050611fc3565b60008484015250505050565b6000601f19601f8301169050919050565b600061200682611fa4565b6120108185611faf565b9350612020818560208601611fc0565b61202981611fea565b840191505092915050565b6000602082019050818103600083015261204e8184611ffb565b905092915050565b6000819050919050565b61206981612056565b811461207457600080fd5b50565b60008135905061208681612060565b92915050565b6000602082840312156120a2576120a1611edf565b5b60006120b084828501612077565b91505092915050565b600073ffffffffffffffffffffffffffffffffffffffff82169050919050565b60006120e4826120b9565b9050919050565b6120f4816120d9565b82525050565b600060208201905061210f60008301846120eb565b92915050565b61211e816120d9565b811461212957600080fd5b50565b60008135905061213b81612115565b92915050565b6000806040838503121561215857612157611edf565b5b60006121668582860161212c565b925050602061217785828601612077565b9150509250929050565b60008060006060848603121561219a57612199611edf565b5b60006121a88682870161212c565b93505060206121b98682870161212c565b92505060406121ca86828701612077565b9150509250925092565b6000602082840312156121ea576121e9611edf565b5b60006121f88482850161212c565b91505092915050565b61220a81612056565b82525050565b60006020820190506122256000830184612201565b92915050565b6000806040838503121561224257612241611edf565b5b600061225085828601612077565b925050602061226185828601612077565b9150509250929050565b61227481611f6e565b811461227f57600080fd5b50565b6000813590506122918161226b565b92915050565b600080604083850312156122ae576122ad611edf565b5b60006122bc8582860161212c565b92505060206122cd85828601612282565b9150509250929050565b600080fd5b600080fd5b7f4e487b7100000000000000000000000000000000000000000000000000000000600052604160045260246000fd5b61231982611fea565b810181811067ffffffffffffffff82111715612338576123376122e1565b5b80604052505050565b600061234b611ed5565b90506123578282612310565b919050565b600067ffffffffffffffff821115612377576123766122e1565b5b61238082611fea565b9050602081019050919050565b82818337600083830152505050565b60006123af6123aa8461235c565b612341565b9050828152602081018484840111156123cb576123ca6122dc565b5b6123d684828561238d565b509392505050565b600082601f8301126123f3576123f26122d7565b5b813561240384826020860161239c565b91505092915050565b60008060006060848603121561242557612424611edf565b5b60006124338682870161212c565b935050602084013567ffffffffffffffff81111561245457612453611ee4565b5b612460868287016123de565b925050604061247186828701612077565b9150509250925092565b600067ffffffffffffffff821115612496576124956122e1565b5b61249f82611fea565b9050602081019050919050565b60006124bf6124ba8461247b565b612341565b9050828152602081018484840111156124db576124da6122dc565b5b6124e684828561238d565b509392505050565b600082601f830112612503576125026122d7565b5b81356125138482602086016124ac565b91505092915050565b6000806000806080858703121561253657612535611edf565b5b60006125448782880161212c565b94505060206125558782880161212c565b935050604061256687828801612077565b925050606085013567ffffffffffffffff81111561258757612586611ee4565b5b612593878288016124ee565b91505092959194509250565b6125a881612056565b82525050565b600082825260208201905092915050565b60006125ca82611fa4565b6125d481856125ae565b93506125e4818560208601611fc0565b6125ed81611fea565b840191505092915050565b6000606083016000830151612610600086018261259f565b506020830151848203602086015261262882826125bf565b915050604083015161263d604086018261259f565b508091505092915050565b6000602082019050818103600083015261266281846125f8565b905092915050565b6000806040838503121561268157612680611edf565b5b600061268f8582860161212c565b92505060206126a08582860161212c565b9150509250929050565b7f4e487b7100000000000000000000000000000000000000000000000000000000600052602260045260246000fd5b600060028204905060018216806126f157607f821691505b602082108103612704576127036126aa565b5b50919050565b600060608201905061271f60008301866120eb565b61272c6020830185612201565b61273960408301846120eb565b949350505050565b6000604082019050818103600083015261275b8185611ffb565b905061276a6020830184612201565b9392505050565b600081905092915050565b600061278782611fa4565b6127918185612771565b93506127a1818560208601611fc0565b80840191505092915050565b60006127b9828561277c565b91506127c5828461277c565b91508190509392505050565b7f4e487b7100000000000000000000000000000000000000000000000000000000600052601160045260246000fd5b600061280b82612056565b91507fffffffffffffffffffffffffffffffffffffffffffffffffffffffffffffffff820361283d5761283c6127d1565b5b600182019050919050565b600081519050919050565b600082825260208201905092915050565b600061286f82612848565b6128798185612853565b9350612889818560208601611fc0565b61289281611fea565b840191505092915050565b60006080820190506128b260008301876120eb565b6128bf60208301866120eb565b6128cc6040830185612201565b81810360608301526128de8184612864565b905095945050505050565b6000815190506128f881611f15565b92915050565b60006020828403121561291457612913611edf565b5b6000612922848285016128e9565b91505092915050565b600060408201905061294060008301856120eb565b61294d6020830184612201565b9392505050565b60008190508160005260206000209050919050565b60006020601f8301049050919050565b600082821b905092915050565b6000600883026129b67fffffffffffffffffffffffffffffffffffffffffffffffffffffffffffffffff82612979565b6129c08683612979565b95508019841693508086168417925050509392505050565b6000819050919050565b60006129fd6129f86129f384612056565b6129d8565b612056565b9050919050565b6000819050919050565b612a17836129e2565b612a2b612a2382612a04565b848454612986565b825550505050565b600090565b612a40612a33565b612a4b818484612a0e565b505050565b5b81811015612a6f57612a64600082612a38565b600181019050612a51565b5050565b601f821115612ab457612a8581612954565b612a8e84612969565b81016020851015612a9d578190505b612ab1612aa985612969565b830182612a50565b50505b505050565b600082821c905092915050565b6000612ad760001984600802612ab9565b1980831691505092915050565b6000612af08383612ac6565b9150826002028217905092915050565b612b0982611fa4565b67ffffffffffffffff811115612b2257612b216122e1565b5b612b2c82546126d9565b612b37828285612a73565b600060209050601f831160018114612b6a5760008415612b58578287015190505b612b628582612ae4565b865550612bca565b601f198416612b7886612954565b60005b82811015612ba057848901518255600182019150602085019450602081019050612b7b565b86831015612bbd5784890151612bb9601f891682612ac6565b8355505b6001600288020188555050505b505050505050565b7f4e487b7100000000000000000000000000000000000000000000000000000000600052601260045260246000fdfea26469706673582212201c7d6734f2694aaaa4975641988b5ecb81c07ae0b5cb68ab2c6fa05d51a6b4ca64736f6c634300081c0033",
  "linkReferences": {},
  "deployedLinkReferences": {}
}