{
  "_format": "hh-sol-artifact-1",
  "contractName": "ResellMarketplace",
  "sourceName": "contracts/ResellMarketplace.sol",
  "abi": [
    {
      "inputs": [
        {
          "internalType": "address",
          "name": "rtNFT",
          "type": "address"
        },
        {
          "internalType": "address",
          "name": "usdc",
          "type": "address"
        },
        {
          "internalType": "address",
          "name": "usdcUsdPF",
          "type": "address"
        },
        {
          "internalType": "uint32",
          "name": "pricefeedHeartbeat",
          "type": "uint32"
        }
      ],
      "stateMutability": "nonpayable",
      "type": "constructor"
    },
    {
      "inputs": [
        {
          "internalType": "address",
          "name": "owner",
          "type": "address"
        }
      ],
      "name": "OwnableInvalidOwner",
      "type": "error"
    },
    {
      "inputs": [
        {
          "internalType": "address",
          "name": "account",
          "type": "address"
        }
      ],
      "name": "OwnableUnauthorizedAccount",
      "type": "error"
    },
    {
      "inputs": [],
      "name": "ReentrancyGuardReentrantCall",
      "type": "error"
    },
    {
      "inputs": [],
      "name": "ResellMarketplace__InsufficientAmount",
      "type": "error"
    },
    {
      "inputs": [],
      "name": "ResellMarketplace__InvalidRoundId",
      "type": "error"
    },
    {
      "inputs": [],
      "name": "ResellMarketplace__OnlyOwnerCanListProduct",
      "type": "error"
    },
    {
      "inputs": [],
      "name": "ResellMarketplace__OnlyResellTokenSupported",
      "type": "error"
    },
    {
      "inputs": [],
      "name": "ResellMarketplace__PriceFeedDdosed",
      "type": "error"
    },
    {
      "inputs": [],
      "name": "ResellMarketplace__StalePriceFeed",
      "type": "error"
    },
    {
      "inputs": [],
      "name": "ResellMarketplace__TokenNotListed",
      "type": "error"
    },
    {
      "inputs": [],
      "name": "ResellMarketplace__TransferFailed",
      "type": "error"
    },
    {
      "anonymous": false,
      "inputs": [
        {
          "indexed": true,
          "internalType": "address",
          "name": "previousOwner",
          "type": "address"
        },
        {
          "indexed": true,
          "internalType": "address",
          "name": "newOwner",
          "type": "address"
        }
      ],
      "name": "OwnershipTransferred",
      "type": "event"
    },
    {
      "anonymous": false,
      "inputs": [
        {
          "indexed": true,
          "internalType": "uint256",
          "name": "tokenId",
          "type": "uint256"
        },
        {
          "indexed": false,
          "internalType": "string",
          "name": "tokenURI",
          "type": "string"
        },
        {
          "indexed": false,
          "internalType": "address",
          "name": "seller",
          "type": "address"
        },
        {
          "indexed": false,
          "internalType": "address",
          "name": "owner",
          "type": "address"
        },
        {
          "indexed": false,
          "internalType": "uint256",
          "name": "price",
          "type": "uint256"
        }
      ],
      "name": "ProductListed",
      "type": "event"
    },
    {
      "anonymous": false,
      "inputs": [
        {
          "indexed": true,
          "internalType": "uint256",
          "name": "tokenId",
          "type": "uint256"
        },
        {
          "indexed": false,
          "internalType": "string",
          "name": "tokenURI",
          "type": "string"
        },
        {
          "indexed": false,
          "internalType": "uint256",
          "name": "price",
          "type": "uint256"
        }
      ],
      "name": "ProductMinted",
      "type": "event"
    },
    {
      "anonymous": false,
      "inputs": [
        {
          "indexed": true,
          "internalType": "uint256",
          "name": "tokenId",
          "type": "uint256"
        },
        {
          "indexed": false,
          "internalType": "address",
          "name": "seller",
          "type": "address"
        },
        {
          "indexed": false,
          "internalType": "address",
          "name": "owner",
          "type": "address"
        },
        {
          "indexed": false,
          "internalType": "uint256",
          "name": "price",
          "type": "uint256"
        }
      ],
      "name": "ProductSold",
      "type": "event"
    },
    {
      "inputs": [
        {
          "internalType": "uint256",
          "name": "tokenId",
          "type": "uint256"
        },
        {
          "internalType": "uint256",
          "name": "amount",
          "type": "uint256"
        }
      ],
      "name": "buy",
      "outputs": [],
      "stateMutability": "nonpayable",
      "type": "function"
    },
    {
      "inputs": [
        {
          "internalType": "uint256",
          "name": "tokenId",
          "type": "uint256"
        }
      ],
      "name": "delistProduct",
      "outputs": [],
      "stateMutability": "nonpayable",
      "type": "function"
    },
    {
      "inputs": [],
      "name": "getListedNfts",
      "outputs": [
        {
          "components": [
            {
              "internalType": "uint256",
              "name": "tokenId",
              "type": "uint256"
            },
            {
              "internalType": "string",
              "name": "tokenURI",
              "type": "string"
            },
            {
              "internalType": "address",
              "name": "seller",
              "type": "address"
            },
            {
              "internalType": "address",
              "name": "owner",
              "type": "address"
            },
            {
              "internalType": "uint256",
              "name": "price",
              "type": "uint256"
            },
            {
              "internalType": "bool",
              "name": "listed",
              "type": "bool"
            }
          ],
          "internalType": "struct ResellMarketplace.NFTDetails[]",
          "name": "",
          "type": "tuple[]"
        }
      ],
      "stateMutability": "view",
      "type": "function"
    },
    {
      "inputs": [],
      "name": "getMyNfts",
      "outputs": [
        {
          "components": [
            {
              "internalType": "uint256",
              "name": "tokenId",
              "type": "uint256"
            },
            {
              "internalType": "string",
              "name": "tokenURI",
              "type": "string"
            },
            {
              "internalType": "address",
              "name": "seller",
              "type": "address"
            },
            {
              "internalType": "address",
              "name": "owner",
              "type": "address"
            },
            {
              "internalType": "uint256",
              "name": "price",
              "type": "uint256"
            },
            {
              "internalType": "bool",
              "name": "listed",
              "type": "bool"
            }
          ],
          "internalType": "struct ResellMarketplace.NFTDetails[]",
          "name": "",
          "type": "tuple[]"
        }
      ],
      "stateMutability": "view",
      "type": "function"
    },
    {
      "inputs": [
        {
          "internalType": "uint256",
          "name": "tokenId",
          "type": "uint256"
        }
      ],
      "name": "getNftDetails",
      "outputs": [
        {
          "components": [
            {
              "internalType": "uint256",
              "name": "tokenId",
              "type": "uint256"
            },
            {
              "internalType": "string",
              "name": "tokenURI",
              "type": "string"
            },
            {
              "internalType": "address",
              "name": "seller",
              "type": "address"
            },
            {
              "internalType": "address",
              "name": "owner",
              "type": "address"
            },
            {
              "internalType": "uint256",
              "name": "price",
              "type": "uint256"
            },
            {
              "internalType": "bool",
              "name": "listed",
              "type": "bool"
            }
          ],
          "internalType": "struct ResellMarketplace.NFTDetails",
          "name": "nftDetails",
          "type": "tuple"
        }
      ],
      "stateMutability": "view",
      "type": "function"
    },
    {
      "inputs": [],
      "name": "getUsdcPriceInUsd",
      "outputs": [
        {
          "internalType": "uint256",
          "name": "",
          "type": "uint256"
        }
      ],
      "stateMutability": "view",
      "type": "function"
    },
    {
      "inputs": [
        {
          "internalType": "uint256",
          "name": "tokenId",
          "type": "uint256"
        }
      ],
      "name": "getValuationInUsdc",
      "outputs": [
        {
          "internalType": "uint256",
          "name": "",
          "type": "uint256"
        }
      ],
      "stateMutability": "view",
      "type": "function"
    },
    {
      "inputs": [
        {
          "internalType": "uint256",
          "name": "tokenId",
          "type": "uint256"
        }
      ],
      "name": "listProduct",
      "outputs": [
        {
          "components": [
            {
              "internalType": "uint256",
              "name": "id",
              "type": "uint256"
            },
            {
              "internalType": "string",
              "name": "uri",
              "type": "string"
            },
            {
              "internalType": "uint256",
              "name": "price",
              "type": "uint256"
            }
          ],
          "internalType": "struct ResellNFT.TokenDetails",
          "name": "tokenDetails",
          "type": "tuple"
        }
      ],
      "stateMutability": "nonpayable",
      "type": "function"
    },
    {
      "inputs": [
        {
          "internalType": "string",
          "name": "tokenURI",
          "type": "string"
        },
        {
          "internalType": "uint256",
          "name": "price",
          "type": "uint256"
        }
      ],
      "name": "mintAndListProduct",
      "outputs": [
        {
          "components": [
            {
              "internalType": "uint256",
              "name": "id",
              "type": "uint256"
            },
            {
              "internalType": "string",
              "name": "uri",
              "type": "string"
            },
            {
              "internalType": "uint256",
              "name": "price",
              "type": "uint256"
            }
          ],
          "internalType": "struct ResellNFT.TokenDetails",
          "name": "tokenDetails",
          "type": "tuple"
        }
      ],
      "stateMutability": "nonpayable",
      "type": "function"
    },
    {
      "inputs": [
        {
          "internalType": "string",
          "name": "tokenURI",
          "type": "string"
        },
        {
          "internalType": "uint256",
          "name": "price",
          "type": "uint256"
        }
      ],
      "name": "mintProduct",
      "outputs": [
        {
          "internalType": "uint256",
          "name": "tokenId",
          "type": "uint256"
        }
      ],
      "stateMutability": "nonpayable",
      "type": "function"
    },
    {
      "inputs": [
        {
          "internalType": "address",
          "name": "operator",
          "type": "address"
        },
        {
          "internalType": "address",
          "name": "from",
          "type": "address"
        },
        {
          "internalType": "uint256",
          "name": "tokenId",
          "type": "uint256"
        },
        {
          "internalType": "bytes",
          "name": "data",
          "type": "bytes"
        }
      ],
      "name": "onERC721Received",
      "outputs": [
        {
          "internalType": "bytes4",
          "name": "",
          "type": "bytes4"
        }
      ],
      "stateMutability": "nonpayable",
      "type": "function"
    },
    {
      "inputs": [],
      "name": "owner",
      "outputs": [
        {
          "internalType": "address",
          "name": "",
          "type": "address"
        }
      ],
      "stateMutability": "view",
      "type": "function"
    },
    {
      "inputs": [],
      "name": "renounceOwnership",
      "outputs": [],
      "stateMutability": "nonpayable",
      "type": "function"
    },
    {
      "inputs": [
        {
          "internalType": "address",
          "name": "usdcUsdAggregatorAddress",
          "type": "address"
        },
        {
          "internalType": "uint256",
          "name": "usdcUsdFeedHeartbeat",
          "type": "uint256"
        }
      ],
      "name": "setUsdcUsdPriceFeedDetails",
      "outputs": [],
      "stateMutability": "nonpayable",
      "type": "function"
    },
    {
      "inputs": [
        {
          "internalType": "address",
          "name": "newOwner",
          "type": "address"
        }
      ],
      "name": "transferOwnership",
      "outputs": [],
      "stateMutability": "nonpayable",
      "type": "function"
    },
    {
      "inputs": [
        {
          "internalType": "uint256",
          "name": "tokenId",
          "type": "uint256"
        },
        {
          "internalType": "uint256",
          "name": "price",
          "type": "uint256"
        }
      ],
      "name": "updateProductPrice",
      "outputs": [],
      "stateMutability": "nonpayable",
      "type": "function"
    }
  ],
  "bytecode": "0x60c060405234801561001057600080fd5b50604051613329380380613329833981810160405281019061003291906102de565b33600073ffffffffffffffffffffffffffffffffffffffff168173ffffffffffffffffffffffffffffffffffffffff16036100a55760006040517f1e4fbdf700000000000000000000000000000000000000000000000000000000815260040161009c9190610354565b60405180910390fd5b6100b48161017b60201b60201c565b50600180819055508373ffffffffffffffffffffffffffffffffffffffff1660808173ffffffffffffffffffffffffffffffffffffffff16815250508273ffffffffffffffffffffffffffffffffffffffff1660a08173ffffffffffffffffffffffffffffffffffffffff168152505081600260006101000a81548173ffffffffffffffffffffffffffffffffffffffff021916908373ffffffffffffffffffffffffffffffffffffffff1602179055508063ffffffff166007819055505050505061036f565b60008060009054906101000a900473ffffffffffffffffffffffffffffffffffffffff169050816000806101000a81548173ffffffffffffffffffffffffffffffffffffffff021916908373ffffffffffffffffffffffffffffffffffffffff1602179055508173ffffffffffffffffffffffffffffffffffffffff168173ffffffffffffffffffffffffffffffffffffffff167f8be0079c531659141344cd1fd0a4f28419497f9722a3daafe3b4186f6b6457e060405160405180910390a35050565b600080fd5b600073ffffffffffffffffffffffffffffffffffffffff82169050919050565b600061026f82610244565b9050919050565b61027f81610264565b811461028a57600080fd5b50565b60008151905061029c81610276565b92915050565b600063ffffffff82169050919050565b6102bb816102a2565b81146102c657600080fd5b50565b6000815190506102d8816102b2565b92915050565b600080600080608085870312156102f8576102f761023f565b5b60006103068782880161028d565b94505060206103178782880161028d565b93505060406103288782880161028d565b9250506060610339878288016102c9565b91505092959194509250565b61034e81610264565b82525050565b60006020820190506103696000830184610345565b92915050565b60805160a051612f646103c56000396000611ab301526000818161066a0152818161076701528181610bcd01528181610c9d0152818161100f0152818161118e015281816113ba01526117080152612f646000f3fe608060405234801561001057600080fd5b50600436106101005760003560e01c80638da5cb5b11610097578063d6febde811610066578063d6febde8146102af578063e85cd748146102cb578063f07172cb146102fb578063f2fde38b1461031757610100565b80638da5cb5b146102295780638dd1ffa6146102475780639c3bddb214610277578063ade318751461029357610100565b8063715018a6116100d3578063715018a6146101b35780637470215d146101bd5780638890fe98146101db5780638d6cb3fb1461020b57610100565b8063047b07bf14610105578063150b7a0214610123578063161d90cd146101535780632d15e94b14610183575b600080fd5b61010d610333565b60405161011a9190611eab565b60405180910390f35b61013d6004803603810190610138919061206e565b61065e565b60405161014a919061212c565b60405180910390f35b61016d600480360381019061016891906121e8565b610707565b60405161017a9190612294565b60405180910390f35b61019d600480360381019061019891906121e8565b61074b565b6040516101aa91906122c5565b60405180910390f35b6101bb610991565b005b6101c56109a5565b6040516101d291906122c5565b60405180910390f35b6101f560048036038101906101f091906122e0565b610b0f565b6040516102029190612294565b60405180910390f35b610213610d7a565b6040516102209190611eab565b60405180910390f35b610231610fe1565b60405161023e919061231c565b60405180910390f35b610261600480360381019061025c91906122e0565b61100a565b60405161026e91906122c5565b60405180910390f35b610291600480360381019061028c9190612337565b61118c565b005b6102ad60048036038101906102a89190612377565b61121d565b005b6102c960048036038101906102c49190612337565b611271565b005b6102e560048036038101906102e091906122e0565b611489565b6040516102f29190612440565b60405180910390f35b610315600480360381019061031091906122e0565b611623565b005b610331600480360381019061032c9190612462565b611799565b005b6060600060045490506000805b828110156103d9573373ffffffffffffffffffffffffffffffffffffffff166003600060018461037091906124be565b815260200190815260200160002060030160009054906101000a900473ffffffffffffffffffffffffffffffffffffffff1673ffffffffffffffffffffffffffffffffffffffff16036103cc5781806103c8906124f2565b9250505b8080600101915050610340565b5060008167ffffffffffffffff8111156103f6576103f5611f43565b5b60405190808252806020026020018201604052801561042f57816020015b61041c611bd6565b8152602001906001900390816104145790505b509050600061043c611bd6565b60005b85811015610652576003600060018361045891906124be565b81526020019081526020016000206040518060c00160405290816000820154815260200160018201805461048b90612569565b80601f01602080910402602001604051908101604052809291908181526020018280546104b790612569565b80156105045780601f106104d957610100808354040283529160200191610504565b820191906000526020600020905b8154815290600101906020018083116104e757829003601f168201915b505050505081526020016002820160009054906101000a900473ffffffffffffffffffffffffffffffffffffffff1673ffffffffffffffffffffffffffffffffffffffff1673ffffffffffffffffffffffffffffffffffffffff1681526020016003820160009054906101000a900473ffffffffffffffffffffffffffffffffffffffff1673ffffffffffffffffffffffffffffffffffffffff1673ffffffffffffffffffffffffffffffffffffffff168152602001600482015481526020016005820160009054906101000a900460ff16151515158152505091503373ffffffffffffffffffffffffffffffffffffffff16826060015173ffffffffffffffffffffffffffffffffffffffff1603610645578184848151811061062b5761062a61259a565b5b60200260200101819052508280610641906124f2565b9350505b808060010191505061043f565b50829550505050505090565b600061066861181f565b7f000000000000000000000000000000000000000000000000000000000000000073ffffffffffffffffffffffffffffffffffffffff163373ffffffffffffffffffffffffffffffffffffffff16146106ed576040517fd21f414300000000000000000000000000000000000000000000000000000000815260040160405180910390fd5b63150b7a0260e01b90506106ff611865565b949350505050565b61070f611c3a565b600061071b848461074b565b905061072681610b0f565b5060405180606001604052808281526020018581526020018481525091505092915050565b600060046000815480929190610760906124f2565b91905055507f000000000000000000000000000000000000000000000000000000000000000073ffffffffffffffffffffffffffffffffffffffff1663b7b0f1693385856040518463ffffffff1660e01b81526004016107c293929190612613565b6020604051808303816000875af11580156107e1573d6000803e3d6000fd5b505050506040513d601f19601f820116820180604052508101906108059190612666565b90506040518060c001604052808281526020018481526020013073ffffffffffffffffffffffffffffffffffffffff1681526020013373ffffffffffffffffffffffffffffffffffffffff1681526020018381526020016000151581525060036000838152602001908152602001600020600082015181600001556020820151816001019081610895919061283f565b5060408201518160020160006101000a81548173ffffffffffffffffffffffffffffffffffffffff021916908373ffffffffffffffffffffffffffffffffffffffff16021790555060608201518160030160006101000a81548173ffffffffffffffffffffffffffffffffffffffff021916908373ffffffffffffffffffffffffffffffffffffffff1602179055506080820151816004015560a08201518160050160006101000a81548160ff021916908315150217905550905050807f955ad009898f0fc7dc63ea6a6c171edc28003dfe9ef5d0e64e0aa1028143cc398484604051610983929190612911565b60405180910390a292915050565b61099961186e565b6109a360006118f5565b565b600080600080600260009054906101000a900473ffffffffffffffffffffffffffffffffffffffff1673ffffffffffffffffffffffffffffffffffffffff1663feaf968c6040518163ffffffff1660e01b815260040160a060405180830381865afa925050508015610a3557506040513d601f19601f82011682018060405250810190610a3291906129b9565b60015b610a6b576040517f4bae74c900000000000000000000000000000000000000000000000000000000815260040160405180910390fd5b849750839650819550505050505060008369ffffffffffffffffffff1603610abf576040517fd5fcf1dc00000000000000000000000000000000000000000000000000000000815260040160405180910390fd5b60075442610acd9190612a34565b811015610b06576040517f8321fca600000000000000000000000000000000000000000000000000000000815260040160405180910390fd5b81935050505090565b610b17611c3a565b813373ffffffffffffffffffffffffffffffffffffffff166003600083815260200190815260200160002060030160009054906101000a900473ffffffffffffffffffffffffffffffffffffffff1673ffffffffffffffffffffffffffffffffffffffff1614610bb3576040517fb954bab000000000000000000000000000000000000000000000000000000000815260040160405180910390fd5b60056000815480929190610bc6906124f2565b91905055507f000000000000000000000000000000000000000000000000000000000000000073ffffffffffffffffffffffffffffffffffffffff1663c1e03728846040518263ffffffff1660e01b8152600401610c2491906122c5565b600060405180830381865afa158015610c41573d6000803e3d6000fd5b505050506040513d6000823e3d601f19601f82011682018060405250810190610c6a9190612b62565b915060016003600085815260200190815260200160002060050160006101000a81548160ff0219169083151502179055507f000000000000000000000000000000000000000000000000000000000000000073ffffffffffffffffffffffffffffffffffffffff166323b872dd3330866040518463ffffffff1660e01b8152600401610cf893929190612bab565b600060405180830381600087803b158015610d1257600080fd5b505af1158015610d26573d6000803e3d6000fd5b5050505081600001517ff8ce007e18c1e9a1e6a3afcc717a3d1c030d96b9fdcb511f7f7b53409494c651836020015130338660400151604051610d6c9493929190612be2565b60405180910390a250919050565b6060600060045490506000600554905060008167ffffffffffffffff811115610da657610da5611f43565b5b604051908082528060200260200182016040528015610ddf57816020015b610dcc611bd6565b815260200190600190039081610dc45790505b5090506000610dec611bd6565b60005b85811015610fd55760036000600183610e0891906124be565b81526020019081526020016000206040518060c001604052908160008201548152602001600182018054610e3b90612569565b80601f0160208091040260200160405190810160405280929190818152602001828054610e6790612569565b8015610eb45780601f10610e8957610100808354040283529160200191610eb4565b820191906000526020600020905b815481529060010190602001808311610e9757829003601f168201915b505050505081526020016002820160009054906101000a900473ffffffffffffffffffffffffffffffffffffffff1673ffffffffffffffffffffffffffffffffffffffff1673ffffffffffffffffffffffffffffffffffffffff1681526020016003820160009054906101000a900473ffffffffffffffffffffffffffffffffffffffff1673ffffffffffffffffffffffffffffffffffffffff1673ffffffffffffffffffffffffffffffffffffffff168152602001600482015481526020016005820160009054906101000a900460ff16151515158152505091508160a0015115610fc85781848481518110610fae57610fad61259a565b5b60200260200101819052508280610fc4906124f2565b9350505b8080600101915050610def565b50829550505050505090565b60008060009054906101000a900473ffffffffffffffffffffffffffffffffffffffff16905090565b6000807f000000000000000000000000000000000000000000000000000000000000000073ffffffffffffffffffffffffffffffffffffffff1663c457fb37846040518263ffffffff1660e01b815260040161106691906122c5565b602060405180830381865afa158015611083573d6000803e3d6000fd5b505050506040513d601f19601f820116820180604052508101906110a79190612666565b905060006110b36109a5565b90506000600260009054906101000a900473ffffffffffffffffffffffffffffffffffffffff1673ffffffffffffffffffffffffffffffffffffffff1663313ce5676040518163ffffffff1660e01b8152600401602060405180830381865afa158015611124573d6000803e3d6000fd5b505050506040513d601f19601f820116820180604052508101906111489190612c67565b60ff169050600061117e838561115e9190612c94565b6006600a61116c9190612e09565b84600a6111799190612e09565b6119b9565b905080945050505050919050565b7f000000000000000000000000000000000000000000000000000000000000000073ffffffffffffffffffffffffffffffffffffffff16639c3bddb283836040518363ffffffff1660e01b81526004016111e7929190612e54565b600060405180830381600087803b15801561120157600080fd5b505af1158015611215573d6000803e3d6000fd5b505050505050565b61122561186e565b81600260006101000a81548173ffffffffffffffffffffffffffffffffffffffff021916908373ffffffffffffffffffffffffffffffffffffffff160217905550806007819055505050565b816003600082815260200190815260200160002060050160009054906101000a900460ff166112cc576040517f67e1341c00000000000000000000000000000000000000000000000000000000815260040160405180910390fd5b600560008154809291906112df90612e7d565b919050555060006003600085815260200190815260200160002060050160006101000a81548160ff021916908315150217905550336003600085815260200190815260200160002060030160006101000a81548173ffffffffffffffffffffffffffffffffffffffff021916908373ffffffffffffffffffffffffffffffffffffffff16021790555060006113738461100a565b9050828111156113af576040517fa08b8fbe00000000000000000000000000000000000000000000000000000000815260040160405180910390fd5b6113b883611aa7565b7f000000000000000000000000000000000000000000000000000000000000000073ffffffffffffffffffffffffffffffffffffffff166342842e0e3033876040518463ffffffff1660e01b815260040161141593929190612bab565b600060405180830381600087803b15801561142f57600080fd5b505af1158015611443573d6000803e3d6000fd5b50505050837fa02e46fc9bbd3e1138787bc1dc117ae0b9a5a3745ea30b0ab673d79d9073902930338660405161147b93929190612bab565b60405180910390a250505050565b611491611bd6565b600360008381526020019081526020016000206040518060c0016040529081600082015481526020016001820180546114c990612569565b80601f01602080910402602001604051908101604052809291908181526020018280546114f590612569565b80156115425780601f1061151757610100808354040283529160200191611542565b820191906000526020600020905b81548152906001019060200180831161152557829003601f168201915b505050505081526020016002820160009054906101000a900473ffffffffffffffffffffffffffffffffffffffff1673ffffffffffffffffffffffffffffffffffffffff1673ffffffffffffffffffffffffffffffffffffffff1681526020016003820160009054906101000a900473ffffffffffffffffffffffffffffffffffffffff1673ffffffffffffffffffffffffffffffffffffffff1673ffffffffffffffffffffffffffffffffffffffff168152602001600482015481526020016005820160009054906101000a900460ff1615151515815250509050919050565b803373ffffffffffffffffffffffffffffffffffffffff166003600083815260200190815260200160002060030160009054906101000a900473ffffffffffffffffffffffffffffffffffffffff1673ffffffffffffffffffffffffffffffffffffffff16146116bf576040517fb954bab000000000000000000000000000000000000000000000000000000000815260040160405180910390fd5b600560008154809291906116d290612e7d565b919050555060006003600084815260200190815260200160002060050160006101000a81548160ff0219169083151502179055507f000000000000000000000000000000000000000000000000000000000000000073ffffffffffffffffffffffffffffffffffffffff166342842e0e3033856040518463ffffffff1660e01b815260040161176393929190612bab565b600060405180830381600087803b15801561177d57600080fd5b505af1158015611791573d6000803e3d6000fd5b505050505050565b6117a161186e565b600073ffffffffffffffffffffffffffffffffffffffff168173ffffffffffffffffffffffffffffffffffffffff16036118135760006040517f1e4fbdf700000000000000000000000000000000000000000000000000000000815260040161180a919061231c565b60405180910390fd5b61181c816118f5565b50565b60026001540361185b576040517f3ee5aeb500000000000000000000000000000000000000000000000000000000815260040160405180910390fd5b6002600181905550565b60018081905550565b611876611b96565b73ffffffffffffffffffffffffffffffffffffffff16611894610fe1565b73ffffffffffffffffffffffffffffffffffffffff16146118f3576118b7611b96565b6040517f118cdaa70000000000000000000000000000000000000000000000000000000081526004016118ea919061231c565b60405180910390fd5b565b60008060009054906101000a900473ffffffffffffffffffffffffffffffffffffffff169050816000806101000a81548173ffffffffffffffffffffffffffffffffffffffff021916908373ffffffffffffffffffffffffffffffffffffffff1602179055508173ffffffffffffffffffffffffffffffffffffffff168173ffffffffffffffffffffffffffffffffffffffff167f8be0079c531659141344cd1fd0a4f28419497f9722a3daafe3b4186f6b6457e060405160405180910390a35050565b60008083850290506000801985870982811083820303915050600081036119f4578382816119ea576119e9612ea6565b5b0492505050611aa0565b808411611a1457611a13611a0e6000861460126011611b9e565b611bb8565b5b600084868809905082811182039150808303925060008560000386169050808604955080840493506001818260000304019050808302841793506000600287600302189050808702600203810290508087026002038102905080870260020381029050808702600203810290508087026002038102905080870260020381029050808502955050505050505b9392505050565b611aaf61181f565b60007f000000000000000000000000000000000000000000000000000000000000000073ffffffffffffffffffffffffffffffffffffffff166323b872dd3330856040518463ffffffff1660e01b8152600401611b0e93929190612bab565b6020604051808303816000875af1158015611b2d573d6000803e3d6000fd5b505050506040513d601f19601f82011682018060405250810190611b519190612f01565b905080611b8a576040517f0e90274b00000000000000000000000000000000000000000000000000000000815260040160405180910390fd5b50611b93611865565b50565b600033905090565b6000611ba984611bca565b82841802821890509392505050565b634e487b71600052806020526024601cfd5b60008115159050919050565b6040518060c001604052806000815260200160608152602001600073ffffffffffffffffffffffffffffffffffffffff168152602001600073ffffffffffffffffffffffffffffffffffffffff168152602001600081526020016000151581525090565b60405180606001604052806000815260200160608152602001600081525090565b600081519050919050565b600082825260208201905092915050565b6000819050602082019050919050565b6000819050919050565b611c9a81611c87565b82525050565b600081519050919050565b600082825260208201905092915050565b60005b83811015611cda578082015181840152602081019050611cbf565b60008484015250505050565b6000601f19601f8301169050919050565b6000611d0282611ca0565b611d0c8185611cab565b9350611d1c818560208601611cbc565b611d2581611ce6565b840191505092915050565b600073ffffffffffffffffffffffffffffffffffffffff82169050919050565b6000611d5b82611d30565b9050919050565b611d6b81611d50565b82525050565b60008115159050919050565b611d8681611d71565b82525050565b600060c083016000830151611da46000860182611c91565b5060208301518482036020860152611dbc8282611cf7565b9150506040830151611dd16040860182611d62565b506060830151611de46060860182611d62565b506080830151611df76080860182611c91565b5060a0830151611e0a60a0860182611d7d565b508091505092915050565b6000611e218383611d8c565b905092915050565b6000602082019050919050565b6000611e4182611c5b565b611e4b8185611c66565b935083602082028501611e5d85611c77565b8060005b85811015611e995784840389528151611e7a8582611e15565b9450611e8583611e29565b925060208a01995050600181019050611e61565b50829750879550505050505092915050565b60006020820190508181036000830152611ec58184611e36565b905092915050565b6000604051905090565b600080fd5b600080fd5b611eea81611d50565b8114611ef557600080fd5b50565b600081359050611f0781611ee1565b92915050565b611f1681611c87565b8114611f2157600080fd5b50565b600081359050611f3381611f0d565b92915050565b600080fd5b600080fd5b7f4e487b7100000000000000000000000000000000000000000000000000000000600052604160045260246000fd5b611f7b82611ce6565b810181811067ffffffffffffffff82111715611f9a57611f99611f43565b5b80604052505050565b6000611fad611ecd565b9050611fb98282611f72565b919050565b600067ffffffffffffffff821115611fd957611fd8611f43565b5b611fe282611ce6565b9050602081019050919050565b82818337600083830152505050565b600061201161200c84611fbe565b611fa3565b90508281526020810184848401111561202d5761202c611f3e565b5b612038848285611fef565b509392505050565b600082601f83011261205557612054611f39565b5b8135612065848260208601611ffe565b91505092915050565b6000806000806080858703121561208857612087611ed7565b5b600061209687828801611ef8565b94505060206120a787828801611ef8565b93505060406120b887828801611f24565b925050606085013567ffffffffffffffff8111156120d9576120d8611edc565b5b6120e587828801612040565b91505092959194509250565b60007fffffffff0000000000000000000000000000000000000000000000000000000082169050919050565b612126816120f1565b82525050565b6000602082019050612141600083018461211d565b92915050565b600067ffffffffffffffff82111561216257612161611f43565b5b61216b82611ce6565b9050602081019050919050565b600061218b61218684612147565b611fa3565b9050828152602081018484840111156121a7576121a6611f3e565b5b6121b2848285611fef565b509392505050565b600082601f8301126121cf576121ce611f39565b5b81356121df848260208601612178565b91505092915050565b600080604083850312156121ff576121fe611ed7565b5b600083013567ffffffffffffffff81111561221d5761221c611edc565b5b612229858286016121ba565b925050602061223a85828601611f24565b9150509250929050565b600060608301600083015161225c6000860182611c91565b50602083015184820360208601526122748282611cf7565b91505060408301516122896040860182611c91565b508091505092915050565b600060208201905081810360008301526122ae8184612244565b905092915050565b6122bf81611c87565b82525050565b60006020820190506122da60008301846122b6565b92915050565b6000602082840312156122f6576122f5611ed7565b5b600061230484828501611f24565b91505092915050565b61231681611d50565b82525050565b6000602082019050612331600083018461230d565b92915050565b6000806040838503121561234e5761234d611ed7565b5b600061235c85828601611f24565b925050602061236d85828601611f24565b9150509250929050565b6000806040838503121561238e5761238d611ed7565b5b600061239c85828601611ef8565b92505060206123ad85828601611f24565b9150509250929050565b600060c0830160008301516123cf6000860182611c91565b50602083015184820360208601526123e78282611cf7565b91505060408301516123fc6040860182611d62565b50606083015161240f6060860182611d62565b5060808301516124226080860182611c91565b5060a083015161243560a0860182611d7d565b508091505092915050565b6000602082019050818103600083015261245a81846123b7565b905092915050565b60006020828403121561247857612477611ed7565b5b600061248684828501611ef8565b91505092915050565b7f4e487b7100000000000000000000000000000000000000000000000000000000600052601160045260246000fd5b60006124c982611c87565b91506124d483611c87565b92508282019050808211156124ec576124eb61248f565b5b92915050565b60006124fd82611c87565b91507fffffffffffffffffffffffffffffffffffffffffffffffffffffffffffffffff820361252f5761252e61248f565b5b600182019050919050565b7f4e487b7100000000000000000000000000000000000000000000000000000000600052602260045260246000fd5b6000600282049050600182168061258157607f821691505b6020821081036125945761259361253a565b5b50919050565b7f4e487b7100000000000000000000000000000000000000000000000000000000600052603260045260246000fd5b600082825260208201905092915050565b60006125e582611ca0565b6125ef81856125c9565b93506125ff818560208601611cbc565b61260881611ce6565b840191505092915050565b6000606082019050612628600083018661230d565b818103602083015261263a81856125da565b905061264960408301846122b6565b949350505050565b60008151905061266081611f0d565b92915050565b60006020828403121561267c5761267b611ed7565b5b600061268a84828501612651565b91505092915050565b60008190508160005260206000209050919050565b60006020601f8301049050919050565b600082821b905092915050565b6000600883026126f57fffffffffffffffffffffffffffffffffffffffffffffffffffffffffffffffff826126b8565b6126ff86836126b8565b95508019841693508086168417925050509392505050565b6000819050919050565b600061273c61273761273284611c87565b612717565b611c87565b9050919050565b6000819050919050565b61275683612721565b61276a61276282612743565b8484546126c5565b825550505050565b600090565b61277f612772565b61278a81848461274d565b505050565b5b818110156127ae576127a3600082612777565b600181019050612790565b5050565b601f8211156127f3576127c481612693565b6127cd846126a8565b810160208510156127dc578190505b6127f06127e8856126a8565b83018261278f565b50505b505050565b600082821c905092915050565b6000612816600019846008026127f8565b1980831691505092915050565b600061282f8383612805565b9150826002028217905092915050565b61284882611ca0565b67ffffffffffffffff81111561286157612860611f43565b5b61286b8254612569565b6128768282856127b2565b600060209050601f8311600181146128a95760008415612897578287015190505b6128a18582612823565b865550612909565b601f1984166128b786612693565b60005b828110156128df578489015182556001820191506020850194506020810190506128ba565b868310156128fc57848901516128f8601f891682612805565b8355505b6001600288020188555050505b505050505050565b6000604082019050818103600083015261292b81856125da565b905061293a60208301846122b6565b9392505050565b600069ffffffffffffffffffff82169050919050565b61296081612941565b811461296b57600080fd5b50565b60008151905061297d81612957565b92915050565b6000819050919050565b61299681612983565b81146129a157600080fd5b50565b6000815190506129b38161298d565b92915050565b600080600080600060a086880312156129d5576129d4611ed7565b5b60006129e38882890161296e565b95505060206129f4888289016129a4565b9450506040612a0588828901612651565b9350506060612a1688828901612651565b9250506080612a278882890161296e565b9150509295509295909350565b6000612a3f82611c87565b9150612a4a83611c87565b9250828203905081811115612a6257612a6161248f565b5b92915050565b600080fd5b600080fd5b6000612a85612a8084612147565b611fa3565b905082815260208101848484011115612aa157612aa0611f3e565b5b612aac848285611cbc565b509392505050565b600082601f830112612ac957612ac8611f39565b5b8151612ad9848260208601612a72565b91505092915050565b600060608284031215612af857612af7612a68565b5b612b026060611fa3565b90506000612b1284828501612651565b600083015250602082015167ffffffffffffffff811115612b3657612b35612a6d565b5b612b4284828501612ab4565b6020830152506040612b5684828501612651565b60408301525092915050565b600060208284031215612b7857612b77611ed7565b5b600082015167ffffffffffffffff811115612b9657612b95611edc565b5b612ba284828501612ae2565b91505092915050565b6000606082019050612bc0600083018661230d565b612bcd602083018561230d565b612bda60408301846122b6565b949350505050565b60006080820190508181036000830152612bfc81876125da565b9050612c0b602083018661230d565b612c18604083018561230d565b612c2560608301846122b6565b95945050505050565b600060ff82169050919050565b612c4481612c2e565b8114612c4f57600080fd5b50565b600081519050612c6181612c3b565b92915050565b600060208284031215612c7d57612c7c611ed7565b5b6000612c8b84828501612c52565b91505092915050565b6000612c9f82611c87565b9150612caa83611c87565b9250828202612cb881611c87565b91508282048414831517612ccf57612cce61248f565b5b5092915050565b60008160011c9050919050565b6000808291508390505b6001851115612d2d57808604811115612d0957612d0861248f565b5b6001851615612d185780820291505b8081029050612d2685612cd6565b9450612ced565b94509492505050565b600082612d465760019050612e02565b81612d545760009050612e02565b8160018114612d6a5760028114612d7457612da3565b6001915050612e02565b60ff841115612d8657612d8561248f565b5b8360020a915084821115612d9d57612d9c61248f565b5b50612e02565b5060208310610133831016604e8410600b8410161715612dd85782820a905083811115612dd357612dd261248f565b5b612e02565b612de58484846001612ce3565b92509050818404811115612dfc57612dfb61248f565b5b81810290505b9392505050565b6000612e1482611c87565b9150612e1f83611c87565b9250612e4c7fffffffffffffffffffffffffffffffffffffffffffffffffffffffffffffffff8484612d36565b905092915050565b6000604082019050612e6960008301856122b6565b612e7660208301846122b6565b9392505050565b6000612e8882611c87565b915060008203612e9b57612e9a61248f565b5b600182039050919050565b7f4e487b7100000000000000000000000000000000000000000000000000000000600052601260045260246000fd5b612ede81611d71565b8114612ee957600080fd5b50565b600081519050612efb81612ed5565b92915050565b600060208284031215612f1757612f16611ed7565b5b6000612f2584828501612eec565b9150509291505056fea26469706673582212200970b2c89329fd481b9c6a433e2c974a754bec9590eeb20b275d8ae284a7321764736f6c634300081c0033",
  "linkReferences": {},
  "deployedLinkReferences": {}
}